{
  "abi": [
    {
      "inputs": [
        {
          "internalType": "address",
          "name": "metadataGenerator_",
          "type": "address"
        },
        {
          "internalType": "address",
          "name": "feeProtocolRecipient_",
          "type": "address"
        },
        {
          "internalType": "uint96",
          "name": "feeProtocol_",
          "type": "uint96"
        },
        {
          "internalType": "address[]",
          "name": "poolTemplates_",
          "type": "address[]"
        },
        {
          "internalType": "contract IPoolManager[]",
          "name": "poolManagerTemplates_",
          "type": "address[]"
        },
        {
          "internalType": "contract IPermitter[]",
          "name": "permitterTemplates_",
          "type": "address[]"
        }
      ],
      "stateMutability": "nonpayable",
      "type": "constructor"
    },
    {
      "inputs": [
        {
          "internalType": "uint256",
          "name": "templateIndex",
          "type": "uint256"
        }
      ],
      "name": "DittoFactoryInvalidTemplateIndex",
      "type": "error"
    },
    {
      "inputs": [],
      "name": "DittoPoolFactoryInvalidProtocolFee",
      "type": "error"
    },
    {
      "inputs": [],
      "name": "OwnerTwoStepNotOwner",
      "type": "error"
    },
    {
      "inputs": [],
      "name": "OwnerTwoStepNotPendingOwner",
      "type": "error"
    },
    {
      "anonymous": false,
      "inputs": [
        {
          "indexed": false,
          "internalType": "address",
          "name": "permitterTemplate",
          "type": "address"
        }
      ],
      "name": "AdminAddedPermitterTemplate",
      "type": "event"
    },
    {
      "anonymous": false,
      "inputs": [
        {
          "indexed": false,
          "internalType": "address",
          "name": "poolManagerTemplate",
          "type": "address"
        }
      ],
      "name": "AdminAddedPoolManagerTemplate",
      "type": "event"
    },
    {
      "anonymous": false,
      "inputs": [
        {
          "indexed": false,
          "internalType": "address",
          "name": "poolTemplate",
          "type": "address"
        }
      ],
      "name": "AdminAddedPoolTemplate",
      "type": "event"
    },
    {
      "anonymous": false,
      "inputs": [
        {
          "indexed": false,
          "internalType": "address",
          "name": "router",
          "type": "address"
        }
      ],
      "name": "AdminAddedRouter",
      "type": "event"
    },
    {
      "anonymous": false,
      "inputs": [
        {
          "indexed": false,
          "internalType": "uint96",
          "name": "protocolFeeMultiplier",
          "type": "uint96"
        }
      ],
      "name": "AdminSetProtocolFeeMultiplier",
      "type": "event"
    },
    {
      "anonymous": false,
      "inputs": [
        {
          "indexed": false,
          "internalType": "address",
          "name": "protocolFeeRecipient",
          "type": "address"
        }
      ],
      "name": "AdminSetProtocolFeeRecipient",
      "type": "event"
    },
    {
      "anonymous": false,
      "inputs": [
        {
          "indexed": false,
          "internalType": "address",
          "name": "dittoPool",
          "type": "address"
        },
        {
          "indexed": false,
          "internalType": "uint256",
          "name": "templateIndex",
          "type": "uint256"
        },
        {
          "indexed": false,
          "internalType": "address",
          "name": "poolManager",
          "type": "address"
        },
        {
          "indexed": false,
          "internalType": "address",
          "name": "permitter",
          "type": "address"
        },
        {
          "indexed": false,
          "internalType": "address",
          "name": "owner",
          "type": "address"
        }
      ],
      "name": "DittoPoolCreated",
      "type": "event"
    },
    {
      "anonymous": false,
      "inputs": [
        {
          "indexed": false,
          "internalType": "address",
          "name": "previousOwner",
          "type": "address"
        }
      ],
      "name": "OwnerTwoStepOwnerRenouncedOwnership",
      "type": "event"
    },
    {
      "anonymous": false,
      "inputs": [
        {
          "indexed": false,
          "internalType": "address",
          "name": "currentOwner",
          "type": "address"
        },
        {
          "indexed": false,
          "internalType": "address",
          "name": "newPendingOwner",
          "type": "address"
        }
      ],
      "name": "OwnerTwoStepOwnerStartedTransfer",
      "type": "event"
    },
    {
      "anonymous": false,
      "inputs": [
        {
          "indexed": false,
          "internalType": "address",
          "name": "previousOwner",
          "type": "address"
        },
        {
          "indexed": false,
          "internalType": "address",
          "name": "newOwner",
          "type": "address"
        }
      ],
      "name": "OwnerTwoStepOwnershipTransferred",
      "type": "event"
    },
    {
      "anonymous": false,
      "inputs": [
        {
          "indexed": false,
          "internalType": "address",
          "name": "newOwner",
          "type": "address"
        }
      ],
      "name": "OwnerTwoStepPendingOwnerAcceptedTransfer",
      "type": "event"
    },
    {
      "inputs": [],
      "name": "acceptOwnership",
      "outputs": [],
      "stateMutability": "nonpayable",
      "type": "function"
    },
    {
      "inputs": [
        {
          "internalType": "contract IPermitter[]",
          "name": "permitterTemplates_",
          "type": "address[]"
        }
      ],
      "name": "addPermitterTemplates",
      "outputs": [],
      "stateMutability": "nonpayable",
      "type": "function"
    },
    {
      "inputs": [
        {
          "internalType": "contract IPoolManager[]",
          "name": "poolManagerTemplates_",
          "type": "address[]"
        }
      ],
      "name": "addPoolManagerTemplates",
      "outputs": [],
      "stateMutability": "nonpayable",
      "type": "function"
    },
    {
      "inputs": [
        {
          "internalType": "address[]",
          "name": "poolTemplates_",
          "type": "address[]"
        }
      ],
      "name": "addPoolTemplates",
      "outputs": [],
      "stateMutability": "nonpayable",
      "type": "function"
    },
    {
      "inputs": [
        {
          "internalType": "contract IDittoRouter[]",
          "name": "routers_",
          "type": "address[]"
        }
      ],
      "name": "addRouters",
      "outputs": [],
      "stateMutability": "nonpayable",
      "type": "function"
    },
    {
      "inputs": [
        {
          "components": [
            {
              "internalType": "address",
              "name": "token",
              "type": "address"
            },
            {
              "internalType": "address",
              "name": "nft",
              "type": "address"
            },
            {
              "internalType": "uint96",
              "name": "feeLp",
              "type": "uint96"
            },
            {
              "internalType": "address",
              "name": "owner",
              "type": "address"
            },
            {
              "internalType": "uint96",
              "name": "feeAdmin",
              "type": "uint96"
            },
            {
              "internalType": "uint128",
              "name": "delta",
              "type": "uint128"
            },
            {
              "internalType": "uint128",
              "name": "basePrice",
              "type": "uint128"
            },
            {
              "internalType": "uint256[]",
              "name": "nftIdList",
              "type": "uint256[]"
            },
            {
              "internalType": "uint256",
              "name": "initialTokenBalance",
              "type": "uint256"
            }
          ],
          "internalType": "struct CreatePoolParams",
          "name": "params_",
          "type": "tuple"
        },
        {
          "internalType": "uint256",
          "name": "templateIndex_",
          "type": "uint256"
        },
        {
          "components": [
            {
              "internalType": "uint256",
              "name": "templateIndex",
              "type": "uint256"
            },
            {
              "internalType": "bytes",
              "name": "templateInitData",
              "type": "bytes"
            }
          ],
          "internalType": "struct PoolManagerTemplate",
          "name": "poolManagerTemplate_",
          "type": "tuple"
        },
        {
          "components": [
            {
              "internalType": "uint256",
              "name": "templateIndex",
              "type": "uint256"
            },
            {
              "internalType": "bytes",
              "name": "templateInitData",
              "type": "bytes"
            },
            {
              "internalType": "bytes",
              "name": "liquidityDepositPermissionData",
              "type": "bytes"
            }
          ],
          "internalType": "struct PermitterTemplate",
          "name": "permitterTemplate_",
          "type": "tuple"
        }
      ],
      "name": "createDittoPool",
      "outputs": [
        {
          "internalType": "contract IDittoPool",
          "name": "dittoPool",
          "type": "address"
        },
        {
          "internalType": "uint256",
          "name": "lpId",
          "type": "uint256"
        },
        {
          "internalType": "contract IPoolManager",
          "name": "poolManager",
          "type": "address"
        },
        {
          "internalType": "contract IPermitter",
          "name": "permitter",
          "type": "address"
        }
      ],
      "stateMutability": "nonpayable",
      "type": "function"
    },
    {
      "inputs": [],
      "name": "getProtocolFee",
      "outputs": [
        {
          "internalType": "uint96",
          "name": "",
          "type": "uint96"
        }
      ],
      "stateMutability": "view",
      "type": "function"
    },
    {
      "inputs": [
        {
          "internalType": "address",
          "name": "router_",
          "type": "address"
        }
      ],
      "name": "isWhitelistedRouter",
      "outputs": [
        {
          "internalType": "bool",
          "name": "",
          "type": "bool"
        }
      ],
      "stateMutability": "view",
      "type": "function"
    },
    {
      "inputs": [],
      "name": "lpNft",
      "outputs": [
        {
          "internalType": "contract LpNft",
          "name": "lpNft_",
          "type": "address"
        }
      ],
      "stateMutability": "view",
      "type": "function"
    },
    {
      "inputs": [],
      "name": "owner",
      "outputs": [
        {
          "internalType": "address",
          "name": "",
          "type": "address"
        }
      ],
      "stateMutability": "view",
      "type": "function"
    },
    {
      "inputs": [],
      "name": "pendingOwner",
      "outputs": [
        {
          "internalType": "address",
          "name": "",
          "type": "address"
        }
      ],
      "stateMutability": "view",
      "type": "function"
    },
    {
      "inputs": [],
      "name": "permitterTemplates",
      "outputs": [
        {
          "internalType": "contract IPermitter[]",
          "name": "",
          "type": "address[]"
        }
      ],
      "stateMutability": "view",
      "type": "function"
    },
    {
      "inputs": [],
      "name": "poolManagerTemplates",
      "outputs": [
        {
          "internalType": "contract IPoolManager[]",
          "name": "",
          "type": "address[]"
        }
      ],
      "stateMutability": "view",
      "type": "function"
    },
    {
      "inputs": [],
      "name": "poolTemplates",
      "outputs": [
        {
          "internalType": "address[]",
          "name": "",
          "type": "address[]"
        }
      ],
      "stateMutability": "view",
      "type": "function"
    },
    {
      "inputs": [],
      "name": "protocolFeeRecipient",
      "outputs": [
        {
          "internalType": "address",
          "name": "",
          "type": "address"
        }
      ],
      "stateMutability": "view",
      "type": "function"
    },
    {
      "inputs": [],
      "name": "renounceOwnership",
      "outputs": [],
      "stateMutability": "nonpayable",
      "type": "function"
    },
    {
      "inputs": [
        {
          "internalType": "contract IMetadataGenerator",
          "name": "metadataGenerator_",
          "type": "address"
        }
      ],
      "name": "setMetadataGenerator",
      "outputs": [],
      "stateMutability": "nonpayable",
      "type": "function"
    },
    {
      "inputs": [
        {
          "internalType": "uint96",
          "name": "feeProtocol_",
          "type": "uint96"
        }
      ],
      "name": "setProtocolFee",
      "outputs": [],
      "stateMutability": "nonpayable",
      "type": "function"
    },
    {
      "inputs": [
        {
          "internalType": "address",
          "name": "feeProtocolRecipient_",
          "type": "address"
        }
      ],
      "name": "setProtocolFeeRecipient",
      "outputs": [],
      "stateMutability": "nonpayable",
      "type": "function"
    },
    {
      "inputs": [
        {
          "internalType": "address",
          "name": "newPendingOwner_",
          "type": "address"
        }
      ],
      "name": "transferOwnership",
      "outputs": [],
      "stateMutability": "nonpayable",
      "type": "function"
    }
  ],
  "bytecode": {
    "object": "0x60a06040523480156200001157600080fd5b5060405162004062380380620040628339810160408190526200003491620005e0565b6200003f3362000128565b60016002556040513390879062000056906200045f565b6001600160a01b03928316815291166020820152604001604051809103906000f0801580156200008a573d6000803e3d6000fd5b506001600160a01b03908116608052600380546001600160601b03166c010000000000000000000000009288169283021790556040519081527f57b69f6a08eac2d22b1e55d9aef0a52b349be784bac79c97544ffdcccbbd79739060200160405180910390a1620000fb84620001a1565b620001068362000228565b6200011182620002e9565b6200011c81620003a4565b505050505050620006d2565b600180546001600160a01b0319169055600054604080516001600160a01b03928316815291831660208301527fbd852796332b57f573b324610c1fbc6b19597cdc44f5a0d0b5232223d3054f09910160405180910390a1600080546001600160a01b0319166001600160a01b0392909216919091179055565b67016345785d8a00006001600160601b0382161115620001d457604051637e75fd8760e01b815260040160405180910390fd5b600380546001600160601b0319166001600160601b0383169081179091556040519081527f8568943547fea7eb0a6c12364e3e635cb7b03b8269ee93184d44efc8f5b87af69060200160405180910390a150565b80516000805b82811015620002e3578381815181106200024c576200024c620006bc565b602090810291909101810151600480546001810182556000919091527f8a35acfbc15ff81a39ae7d344fd709f28e8600b4aa8c65c6b64bfe7fe36bd19b0180546001600160a01b0319166001600160a01b0383169081179091556040519081529093507f3d8b488471637d050fdc48370fbb8d0b1fd7eabd4fd8724316089020c0642be8910160405180910390a16001016200022e565b50505050565b80516000805b82811015620002e3578381815181106200030d576200030d620006bc565b602090810291909101810151600580546001810182556000919091527f036b6384b5eca791c62761152d0c79bb0604c104a5fb6f4eb0703f3154bb3db00180546001600160a01b0319166001600160a01b0383169081179091556040519081529093507f09fc1185318e23e952adea04ebc524a5723db4df631d63f1ef00db62a21367bb910160405180910390a1600101620002ef565b80516000805b82811015620002e357838181518110620003c857620003c8620006bc565b602090810291909101810151600680546001810182556000919091527ff652222313e28459528d920b65115c16c04f3efc82aaedc97be59f3f377c0d3f0180546001600160a01b0319166001600160a01b0383169081179091556040519081529093507f143e40363ffd5271281d65af59e03638387b9160c7e20d074432f5b361093214910160405180910390a1600101620003aa565b61200a806200205883390190565b6001600160a01b03811681146200048357600080fd5b50565b634e487b7160e01b600052604160045260246000fd5b604051601f8201601f191681016001600160401b0381118282101715620004c757620004c762000486565b604052919050565b60006001600160401b03821115620004eb57620004eb62000486565b5060051b60200190565b600082601f8301126200050757600080fd5b81516020620005206200051a83620004cf565b6200049c565b82815260059290921b840181019181810190868411156200054057600080fd5b8286015b84811015620005685780516200055a816200046d565b835291830191830162000544565b509695505050505050565b600082601f8301126200058557600080fd5b81516020620005986200051a83620004cf565b82815260059290921b84018101918181019086841115620005b857600080fd5b8286015b8481101562000568578051620005d2816200046d565b8352918301918301620005bc565b60008060008060008060c08789031215620005fa57600080fd5b865162000607816200046d565b60208801519096506200061a816200046d565b60408801519095506001600160601b03811681146200063857600080fd5b60608801519094506001600160401b03808211156200065657600080fd5b620006648a838b01620004f5565b945060808901519150808211156200067b57600080fd5b620006898a838b0162000573565b935060a0890151915080821115620006a057600080fd5b50620006af89828a01620004f5565b9150509295509295509295565b634e487b7160e01b600052603260045260246000fd5b60805161195562000703600039600081816102de015281816105d60152818161086201526108ea01526119556000f3fe608060405234801561001057600080fd5b506004361061012b5760003560e01c806393777369116100ad578063dfb371a211610071578063dfb371a2146102b0578063e30c3978146102b8578063e521cb92146102c9578063f17156a7146102dc578063f2fde38b1461030257600080fd5b806393777369146101f8578063a4b296201461020b578063a5a4103114610247578063c5d637fc14610262578063d38cfca31461026a57600080fd5b80636b6dccfe116100f45780636b6dccfe146101af578063715018a6146101c257806379ba5097146101ca5780638da5cb5b146101d257806391c46355146101e357600080fd5b80622951db146101305780631289232b146101455780634b01f85e146101585780635e50c9121461016b57806364df049e1461017e575b600080fd5b61014361013e366004611348565b610315565b005b610143610153366004611348565b61035d565b610143610166366004611348565b6103a1565b610143610179366004611348565b610447565b600354600160601b90046001600160a01b03165b6040516001600160a01b0390911681526020015b60405180910390f35b6101436101bd3660046113a1565b61048b565b61014361049f565b6101436104e6565b6000546001600160a01b0316610192565b6101eb61054d565b6040516101a691906113c3565b610143610206366004611425565b6105af565b610237610219366004611425565b6001600160a01b031660009081526007602052604090205460ff1690565b60405190151581526020016101a6565b6003546040516001600160601b0390911681526020016101a6565b6101eb610635565b61027d610278366004611569565b610695565b604080516001600160a01b03958616815260208101949094529184169183019190915290911660608201526080016101a6565b6101eb610ba1565b6001546001600160a01b0316610192565b6101436102d7366004611425565b610c01565b7f0000000000000000000000000000000000000000000000000000000000000000610192565b610143610310366004611425565b610c66565b61031d610cca565b610359828280806020026020016040519081016040528093929190818152602001838360200280828437600092019190915250610cf592505050565b5050565b610365610cca565b610359828280806020026020016040519081016040528093929190818152602001838360200280828437600092019190915250610dab92505050565b6103a9610cca565b8060005b818110156104415760008484838181106103c9576103c96116af565b90506020020160208101906103de9190611425565b6001600160a01b038116600081815260076020908152604091829020805460ff1916600117905590519182529192507fadbb3576e6b4b50c86afd5fb63f6f7f046d229861d7adf02a5bbc31e832c8775910160405180910390a1506001016103ad565b50505050565b61044f610cca565b610359828280806020026020016040519081016040528093929190818152602001838360200280828437600092019190915250610e6192505050565b610493610cca565b61049c81610f17565b50565b6104a7610cca565b6040513381527f9d07d4215c72f7cdbd9dbdaa36e750f8901108ca59a5b8ca02b2bfdbce5222759060200160405180910390a16104e46000610f9c565b565b6001546001600160a01b031633146105115760405163c0174bbf60e01b815260040160405180910390fd5b6040513381527fb4d97c22a2d2e5f2283ac6a0d116f538ef680f060794b5c1ed31e3478c5ee9a79060200160405180910390a16104e433610f9c565b606060068054806020026020016040519081016040528092919081815260200182805480156105a557602002820191906000526020600020905b81546001600160a01b03168152600190910190602001808311610587575b5050505050905090565b6105b7610cca565b604051639377736960e01b81526001600160a01b0382811660048301527f00000000000000000000000000000000000000000000000000000000000000001690639377736990602401600060405180830381600087803b15801561061a57600080fd5b505af115801561062e573d6000803e3d6000fd5b5050505050565b606060048054806020026020016040519081016040528092919081815260200182805480156105a5576020028201919060005260206000209081546001600160a01b03168152600190910190602001808311610587575050505050905090565b6000806000806106a3611015565b60045487106106cd5760405163eaa1db7f60e01b8152600481018890526024015b60405180910390fd5b60608801516006548635101561077f5761071160068760000135815481106106f7576106f76116af565b6000918252602090912001546001600160a01b031661106c565b91506001600160a01b03821663439fab9161072f60208901896116c5565b6040518363ffffffff1660e01b815260040161074c929190611735565b600060405180830381600087803b15801561076657600080fd5b505af115801561077a573d6000803e3d6000fd5b505050505b610795600489815481106106f7576106f76116af565b6005549095508735101561083c576107bd60058860000135815481106106f7576106f76116af565b92506001600160a01b03831663d1f57894866107dc60208b018b6116c5565b6040518463ffffffff1660e01b81526004016107fa93929190611751565b600060405180830381600087803b15801561081457600080fd5b505af1158015610828573d6000803e3d6000fd5b5050506001600160a01b03841660608b0152505b604051630e07a6eb60e11b81526001600160a01b03861690631c0f4dd69061088c908c907f00000000000000000000000000000000000000000000000000000000000000009087906004016117ba565b600060405180830381600087803b1580156108a657600080fd5b505af11580156108ba573d6000803e3d6000fd5b505050506020890151604051637656a9dd60e11b81526001600160a01b03878116600483015291821660248201527f00000000000000000000000000000000000000000000000000000000000000009091169063ecad53ba90604401600060405180830381600087803b15801561093057600080fd5b505af1158015610944573d6000803e3d6000fd5b50505060e08a0151516101008b01519015159150151580806109635750815b15610b2f5780156109ae576101008b01518b5161098f916001600160a01b039091169085903090611106565b6101008b01518b516109ae916001600160a01b03909116908990611193565b8115610a30576109c78b60200151848d60e0015161120b565b60208b015160405163a22cb46560e01b81526001600160a01b038981166004830152600160248301529091169063a22cb46590604401600060405180830381600087803b158015610a1757600080fd5b505af1158015610a2b573d6000803e3d6000fd5b505050505b866001600160a01b0316635dd7c991848d60e001518e61010001518c8060400190610a5b91906116c5565b6040518663ffffffff1660e01b8152600401610a7b9594939291906118bd565b6020604051808303816000875af1158015610a9a573d6000803e3d6000fd5b505050506040513d601f19601f82011682018060405250810190610abe9190611906565b95508115610b2f5760208b015160405163a22cb46560e01b81526001600160a01b038981166004830152600060248301529091169063a22cb46590604401600060405180830381600087803b158015610b1657600080fd5b505af1158015610b2a573d6000803e3d6000fd5b505050505b604080516001600160a01b038981168252602082018d90528781168284015286811660608301528516608082015290517f83ff86d3adb4d1a3c13049474a44877e578ef5be3a80e5d0546b59593582750e9181900360a00190a1505050610b966001600255565b945094509450949050565b606060058054806020026020016040519081016040528092919081815260200182805480156105a5576020028201919060005260206000209081546001600160a01b03168152600190910190602001808311610587575050505050905090565b610c09610cca565b600380546001600160601b0316600160601b6001600160a01b038416908102919091179091556040519081527f57b69f6a08eac2d22b1e55d9aef0a52b349be784bac79c97544ffdcccbbd7973906020015b60405180910390a150565b610c6e610cca565b600180546001600160a01b0319166001600160a01b038381169182179092556000546040805191909316815260208101919091527f707046fe3aa1fd047869d2f5493da56e4e46a67de25b5174de594aa5905080819101610c5b565b6000546001600160a01b031633146104e4576040516305fb7e5960e51b815260040160405180910390fd5b80516000805b8281101561044157838181518110610d1557610d156116af565b602090810291909101810151600680546001810182556000919091527ff652222313e28459528d920b65115c16c04f3efc82aaedc97be59f3f377c0d3f0180546001600160a01b0319166001600160a01b0383169081179091556040519081529093507f143e40363ffd5271281d65af59e03638387b9160c7e20d074432f5b361093214910160405180910390a1600101610cfb565b80516000805b8281101561044157838181518110610dcb57610dcb6116af565b602090810291909101810151600480546001810182556000919091527f8a35acfbc15ff81a39ae7d344fd709f28e8600b4aa8c65c6b64bfe7fe36bd19b0180546001600160a01b0319166001600160a01b0383169081179091556040519081529093507f3d8b488471637d050fdc48370fbb8d0b1fd7eabd4fd8724316089020c0642be8910160405180910390a1600101610db1565b80516000805b8281101561044157838181518110610e8157610e816116af565b602090810291909101810151600580546001810182556000919091527f036b6384b5eca791c62761152d0c79bb0604c104a5fb6f4eb0703f3154bb3db00180546001600160a01b0319166001600160a01b0383169081179091556040519081529093507f09fc1185318e23e952adea04ebc524a5723db4df631d63f1ef00db62a21367bb910160405180910390a1600101610e67565b67016345785d8a00006001600160601b0382161115610f4957604051637e75fd8760e01b815260040160405180910390fd5b600380546bffffffffffffffffffffffff19166001600160601b0383169081179091556040519081527f8568943547fea7eb0a6c12364e3e635cb7b03b8269ee93184d44efc8f5b87af690602001610c5b565b600180546001600160a01b0319169055600054604080516001600160a01b03928316815291831660208301527fbd852796332b57f573b324610c1fbc6b19597cdc44f5a0d0b5232223d3054f09910160405180910390a1600080546001600160a01b0319166001600160a01b0392909216919091179055565b60028054036110665760405162461bcd60e51b815260206004820152601f60248201527f5265656e7472616e637947756172643a207265656e7472616e742063616c6c0060448201526064016106c4565b60028055565b6000763d602d80600a3d3981f3363d3d373d3d3d363d730000008260601b60e81c176000526e5af43d82803e903d91602b57fd5bf38260781b17602052603760096000f090506001600160a01b0381166111015760405162461bcd60e51b8152602060048201526016602482015275115490cc4c4d8dce8818dc99585d194819985a5b195960521b60448201526064016106c4565b919050565b60006040516323b872dd60e01b81526001600160a01b03851660048201526001600160a01b038416602482015282604482015260008060648360008a5af1915050611150816112b5565b61062e5760405162461bcd60e51b81526020600482015260146024820152731514905394d1915497d19493d357d1905253115160621b60448201526064016106c4565b600060405163095ea7b360e01b81526001600160a01b03841660048201528260248201526000806044836000895af19150506111ce816112b5565b6104415760405162461bcd60e51b815260206004820152600e60248201526d1054141493d59157d1905253115160921b60448201526064016106c4565b80516000805b828110156112ad5783818151811061122b5761122b6116af565b60209081029190910101516040516323b872dd60e01b81526001600160a01b03878116600483015230602483015260448201839052919350908716906323b872dd90606401600060405180830381600087803b15801561128a57600080fd5b505af115801561129e573d6000803e3d6000fd5b50505050806001019050611211565b505050505050565b60003d826112c757806000803e806000fd5b80602081146112df5780156112f057600092506112f5565b816000803e600051151592506112f5565b600192505b5050919050565b60008083601f84011261130e57600080fd5b50813567ffffffffffffffff81111561132657600080fd5b6020830191508360208260051b850101111561134157600080fd5b9250929050565b6000806020838503121561135b57600080fd5b823567ffffffffffffffff81111561137257600080fd5b61137e858286016112fc565b90969095509350505050565b80356001600160601b038116811461110157600080fd5b6000602082840312156113b357600080fd5b6113bc8261138a565b9392505050565b6020808252825182820181905260009190848201906040850190845b818110156114045783516001600160a01b0316835292840192918401916001016113df565b50909695505050505050565b6001600160a01b038116811461049c57600080fd5b60006020828403121561143757600080fd5b81356113bc81611410565b803561110181611410565b634e487b7160e01b600052604160045260246000fd5b604051610120810167ffffffffffffffff811182821017156114875761148761144d565b60405290565b80356001600160801b038116811461110157600080fd5b600082601f8301126114b557600080fd5b8135602067ffffffffffffffff808311156114d2576114d261144d565b8260051b604051601f19603f830116810181811084821117156114f7576114f761144d565b60405293845285810183019383810192508785111561151557600080fd5b83870191505b848210156115345781358352918301919083019061151b565b979650505050505050565b60006040828403121561155157600080fd5b50919050565b60006060828403121561155157600080fd5b6000806000806080858703121561157f57600080fd5b843567ffffffffffffffff8082111561159757600080fd5b9086019061012082890312156115ac57600080fd5b6115b4611463565b6115bd83611442565b81526115cb60208401611442565b60208201526115dc6040840161138a565b60408201526115ed60608401611442565b60608201526115fe6080840161138a565b608082015261160f60a0840161148d565b60a082015261162060c0840161148d565b60c082015260e08301358281111561163757600080fd5b6116438a8286016114a4565b60e0830152506101008084013581830152508096505060208701359450604087013591508082111561167457600080fd5b6116808883890161153f565b9350606087013591508082111561169657600080fd5b506116a387828801611557565b91505092959194509250565b634e487b7160e01b600052603260045260246000fd5b6000808335601e198436030181126116dc57600080fd5b83018035915067ffffffffffffffff8211156116f757600080fd5b60200191503681900382131561134157600080fd5b81835281816020850137506000828201602090810191909152601f909101601f19169091010190565b60208152600061174960208301848661170c565b949350505050565b6001600160a01b0384168152604060208201819052600090611776908301848661170c565b95945050505050565b600081518084526020808501945080840160005b838110156117af57815187529582019590820190600101611793565b509495945050505050565b606081526117d46060820185516001600160a01b03169052565b600060208501516117f060808401826001600160a01b03169052565b5060408501516001600160601b03811660a08401525060608501516001600160a01b03811660c08401525060808501516001600160601b03811660e08401525060a085015161010061184c818501836001600160801b03169052565b60c0870151915061012061186a818601846001600160801b03169052565b60e08801519250806101408601525061188761018085018361177f565b908701516101608501526001600160a01b038616602085015291506118a99050565b6001600160a01b0383166040830152611749565b6001600160a01b03861681526080602082018190526000906118e19083018761177f565b85604084015282810360608401526118fa81858761170c565b98975050505050505050565b60006020828403121561191857600080fd5b505191905056fea2646970667358221220b36e55eaeab20a02a66ff9406a16c4297d4f9bb7280d0e20f6a31fdb53eb7c0964736f6c6343000813003360a0604052600b80546001600160a01b0316600160a01b1790553480156200002657600080fd5b506040516200200a3803806200200a83398101604081905262000049916200019b565b6040518060400160405280601681526020017f446974746f204c5020506f736974696f6e73204e465400000000000000000000815250604051806040016040528060038152602001620444c560ec1b8152508160009081620000ac919062000278565b506001620000bb828262000278565b505050620000cf336200010560201b60201c565b620000da8262000105565b33608052600b80546001600160a01b0319166001600160a01b03929092169190911790555062000344565b600880546001600160a01b0319169055600754604080516001600160a01b03928316815291831660208301527fbd852796332b57f573b324610c1fbc6b19597cdc44f5a0d0b5232223d3054f09910160405180910390a1600780546001600160a01b0319166001600160a01b0392909216919091179055565b80516001600160a01b03811681146200019657600080fd5b919050565b60008060408385031215620001af57600080fd5b620001ba836200017e565b9150620001ca602084016200017e565b90509250929050565b634e487b7160e01b600052604160045260246000fd5b600181811c90821680620001fe57607f821691505b6020821081036200021f57634e487b7160e01b600052602260045260246000fd5b50919050565b601f8211156200027357600081815260208120601f850160051c810160208610156200024e5750805b601f850160051c820191505b818110156200026f578281556001016200025a565b5050505b505050565b81516001600160401b03811115620002945762000294620001d3565b620002ac81620002a58454620001e9565b8462000225565b602080601f831160018114620002e45760008415620002cb5750858301515b600019600386901b1c1916600185901b1785556200026f565b600085815260208120601f198616915b828110156200031557888601518255948401946001909101908401620002f4565b5085821015620003345787850151600019600388901b60f8161c191681555b5050505050600190811b01905550565b608051611c9c6200036e600039600081816104bf01528181610e86015261128e0152611c9c6000f3fe608060405234801561001057600080fd5b506004361061023d5760003560e01c806379ba50971161013b578063c10b09d2116100b8578063e8a3d4851161007c578063e8a3d485146105c8578063e985e9c5146105d0578063ecad53ba146105fe578063f0795c5214610611578063f2fde38b1461062457600080fd5b8063c10b09d214610529578063c87b56dd14610563578063d62fca6b14610576578063e30c3978146105a4578063e4582d98146105b557600080fd5b806395d89b41116100ff57806395d89b41146104b5578063970e959a146104bd5780639fc05778146104e3578063a22cb46514610503578063b88d4fde1461051657600080fd5b806379ba50971461046e5780638222b7d7146104765780638a66bd611461047e5780638da5cb5b1461049157806393777369146104a257600080fd5b806339d4ce89116101c95780636352211e1161018d5780636352211e146103e15780636a6278421461040a5780636afbe3391461041d57806370a0823114610446578063715018a61461046657600080fd5b806339d4ce891461033857806342842e0e1461034957806342966c681461035c5780634e1831d01461036f57806361b8ce8c146103c957600080fd5b8063095ea7b311610210578063095ea7b3146102e157806318160ddd146102f657806323b872dd146102ff5780632a16cca4146103125780633190b9ea1461032557600080fd5b806301ffc9a714610242578063058062b31461026a57806306fdde031461028b578063081812fc146102a0575b600080fd5b610255610250366004611705565b610637565b60405190151581526020015b60405180910390f35b61027d610278366004611729565b6106a4565b604051908152602001610261565b6102936106c2565b6040516102619190611792565b6102c96102ae366004611729565b6005602052600090815260409020546001600160a01b031681565b6040516001600160a01b039091168152602001610261565b6102f46102ef3660046117ba565b610750565b005b61027d60025481565b6102f461030d3660046117e6565b610837565b6102556103203660046117ba565b6109fe565b6102f4610333366004611729565b610a79565b600b546001600160a01b03166102c9565b6102f46103573660046117e6565b610ae6565b6102f461036a366004611729565b610bbb565b6103a961037d366004611729565b6000908152600960209081526040808320546004909252909120546001600160a01b0391821692911690565b604080516001600160a01b03938416815292909116602083015201610261565b600b54600160a01b90046001600160601b031661027d565b6102c96103ef366004611729565b6004602052600090815260409020546001600160a01b031681565b61027d610418366004611827565b610c19565b6102c961042b366004611729565b6000908152600960205260409020546001600160a01b031690565b61027d610454366004611827565b60036020526000908152604090205481565b6102f4610cbd565b6102f4610d04565b6102f4610d6b565b61027d61048c366004611729565b610de9565b6007546001600160a01b03166102c9565b6102f46104b0366004611827565b610e7b565b610293610f12565b7f00000000000000000000000000000000000000000000000000000000000000006102c9565b6104f66104f1366004611729565b610f1f565b6040516102619190611844565b6102f4610511366004611888565b610f9e565b6102f4610524366004611935565b61100a565b6102c9610537366004611729565b6000908152600960209081526040808320546001600160a01b039081168452600a909252909120541690565b610293610571366004611729565b6110cc565b610255610584366004611827565b6001600160a01b039081166000908152600a602052604090205416151590565b6008546001600160a01b03166102c9565b61027d6105c3366004611729565b611192565b61029361120c565b6102556105de3660046119e4565b600660209081526000928352604080842090915290825290205460ff1681565b6102f461060c3660046119e4565b611283565b61027d61061f366004611729565b6112fa565b6102f4610632366004611827565b611337565b60006301ffc9a760e01b6001600160e01b03198316148061066857506380ac58cd60e01b6001600160e01b03198316145b806106835750632483248360e11b6001600160e01b03198316145b8061069e5750635b5e139f60e01b6001600160e01b03198316145b92915050565b60006106af82610de9565b6106b8836112fa565b61069e9190611a28565b600080546106cf90611a3b565b80601f01602080910402602001604051908101604052809291908181526020018280546106fb90611a3b565b80156107485780601f1061071d57610100808354040283529160200191610748565b820191906000526020600020905b81548152906001019060200180831161072b57829003601f168201915b505050505081565b6000818152600460205260409020546001600160a01b03163381148061079957506001600160a01b038116600090815260066020908152604080832033845290915290205460ff165b6107db5760405162461bcd60e51b815260206004820152600e60248201526d1393d517d055551213d49256915160921b60448201526064015b60405180910390fd5b60008281526005602052604080822080546001600160a01b0319166001600160a01b0387811691821790925591518593918516917f8c5be1e5ebec7d5bd14f71427d1e84f3dd0314c0f7b2291e5b200ac8c7c3b92591a4505050565b6000818152600460205260409020546001600160a01b0384811691161461088d5760405162461bcd60e51b815260206004820152600a60248201526957524f4e475f46524f4d60b01b60448201526064016107d2565b6001600160a01b0382166108d75760405162461bcd60e51b81526020600482015260116024820152701253959053125117d49150d25412515395607a1b60448201526064016107d2565b336001600160a01b038416148061090457506000818152600560205260409020546001600160a01b031633145b8061093257506001600160a01b038316600090815260066020908152604080832033845290915290205460ff165b61096f5760405162461bcd60e51b815260206004820152600e60248201526d1393d517d055551213d49256915160921b60448201526064016107d2565b6001600160a01b0380841660008181526003602090815260408083208054600019019055938616808352848320805460010190558583526005825284832080546001600160a01b03199081169091556004909252848320805490921681179091559251849392917fddf252ad1be2c89b69c2b068fc378daa952ba7f163c4a11628f55a4df523b3ef91a4505050565b6000818152600460205260408120546001600160a01b03908116908416811480610a4d57506001600160a01b0380821660009081526006602090815260408083209388168352929052205460ff165b80610a7157506000838152600560205260409020546001600160a01b038581169116145b949350505050565b336000908152600a60205260409020546001600160a01b0316610aaf5760405163d9a888a160e01b815260040160405180910390fd5b6040518181527ff8e1a15aba9398e019f0b49df1a4fde98ee17ae345cb5f6b5e2c27f5033e8ce7906020015b60405180910390a150565b610af1838383610837565b6001600160a01b0382163b1580610b9a5750604051630a85bd0160e11b8082523360048301526001600160a01b03858116602484015260448301849052608060648401526000608484015290919084169063150b7a029060a4016020604051808303816000875af1158015610b6a573d6000803e3d6000fd5b505050506040513d601f19601f82011682018060405250810190610b8e9190611a75565b6001600160e01b031916145b610bb65760405162461bcd60e51b81526004016107d290611a92565b505050565b336000908152600a60205260409020546001600160a01b0316610bf15760405163d9a888a160e01b815260040160405180910390fd5b600081815260096020526040902080546001600160a01b0319169055610c168161139b565b50565b336000908152600a60205260408120546001600160a01b0316610c4f5760405163d9a888a160e01b815260040160405180910390fd5b50600b546001600160601b03600160a01b90910416600081815260096020526040902080546001600160a01b03191633179055610c8c8282611464565b600b805460016001600160601b03600160a01b80840482169290920116026001600160a01b03909116179055919050565b610cc5611534565b6040513381527f9d07d4215c72f7cdbd9dbdaa36e750f8901108ca59a5b8ca02b2bfdbce5222759060200160405180910390a1610d02600061155f565b565b6008546001600160a01b03163314610d2f5760405163c0174bbf60e01b815260040160405180910390fd5b6040513381527fb4d97c22a2d2e5f2283ac6a0d116f538ef680f060794b5c1ed31e3478c5ee9a79060200160405180910390a1610d023361155f565b336000908152600a60205260409020546001600160a01b0316610da15760405163d9a888a160e01b815260040160405180910390fd5b60025415610d0257600254604080516001815260208101929092527f6bd5c950a8d8df17f772f5af37cb3655737899cbf903264b9795592da439661c910160405180910390a1565b60008181526009602090815260408083205481516331e1dba960e21b815291516001600160a01b039091169263c7876ea492600480820193918290030181865afa158015610e3b573d6000803e3d6000fd5b505050506040513d601f19601f82011682018060405250810190610e5f9190611abc565b6001600160801b0316610e7183611192565b61069e9190611ae5565b336001600160a01b037f00000000000000000000000000000000000000000000000000000000000000001614610ec45760405163024894c760e31b815260040160405180910390fd5b600b80546001600160a01b0319166001600160a01b0383169081179091556040519081527f5189b01aec965554c016d192b5327e9e0d8e8cb835fcee74dd93dbcbb38bdb3f90602001610adb565b600180546106cf90611a3b565b60008181526009602052604090819020549051638cb9520560e01b8152600481018390526060916001600160a01b031690638cb9520590602401600060405180830381865afa158015610f76573d6000803e3d6000fd5b505050506040513d6000823e601f3d908101601f1916820160405261069e9190810190611afc565b3360008181526006602090815260408083206001600160a01b03871680855290835292819020805460ff191686151590811790915590519081529192917f17307eab39ab6107e8899845ad3d59bd9653f200f220920489ca2b5937696c31910160405180910390a35050565b611015848484610837565b6001600160a01b0383163b15806110aa5750604051630a85bd0160e11b808252906001600160a01b0385169063150b7a029061105b903390899088908890600401611ba2565b6020604051808303816000875af115801561107a573d6000803e3d6000fd5b505050506040513d601f19601f8201168201806040525081019061109e9190611a75565b6001600160e01b031916145b6110c65760405162461bcd60e51b81526004016107d290611a92565b50505050565b6000818152600960205260408120546060916001600160a01b03909116906110f3846112fa565b9050600061110085611192565b600b54604051636f7f52a760e01b8152600481018890526001600160a01b0386811660248301526044820186905260648201849052929350911690636f7f52a790608401600060405180830381865afa158015611161573d6000803e3d6000fd5b505050506040513d6000823e601f3d908101601f191682016040526111899190810190611bdf565b95945050505050565b600081815260096020526040808220549051632a0f968960e21b8152600481018490526001600160a01b039091169063a83e5a24906024015b602060405180830381865afa1580156111e8573d6000803e3d6000fd5b505050506040513d601f19601f8201168201806040525081019061069e9190611c4d565b600b5460408051631d6bc9f760e11b815290516060926001600160a01b031691633ad793ee9160048083019260009291908290030181865afa158015611256573d6000803e3d6000fd5b505050506040513d6000823e601f3d908101601f1916820160405261127e9190810190611bdf565b905090565b336001600160a01b037f000000000000000000000000000000000000000000000000000000000000000016146112cc5760405163024894c760e31b815260040160405180910390fd5b6001600160a01b039182166000908152600a6020526040902080546001600160a01b03191691909216179055565b600081815260096020526040808220549051638223a9fd60e01b8152600481018490526001600160a01b0390911690638223a9fd906024016111cb565b61133f611534565b600880546001600160a01b0319166001600160a01b038381169182179092556007546040805191909316815260208101919091527f707046fe3aa1fd047869d2f5493da56e4e46a67de25b5174de594aa5905080819101610adb565b6000818152600460205260409020546001600160a01b0316806113ed5760405162461bcd60e51b815260206004820152600a6024820152691393d517d3525395115160b21b60448201526064016107d2565b600280546000199081019091556001600160a01b038216600081815260036020908152604080832080549095019094558582526004905282812080546001600160a01b03191690559151849291907fddf252ad1be2c89b69c2b068fc378daa952ba7f163c4a11628f55a4df523b3ef908390a45050565b61146e82826115d8565b6001600160a01b0382163b15806115145750604051630a85bd0160e11b80825233600483015260006024830181905260448301849052608060648401526084830152906001600160a01b0384169063150b7a029060a4016020604051808303816000875af11580156114e4573d6000803e3d6000fd5b505050506040513d601f19601f820116820180604052508101906115089190611a75565b6001600160e01b031916145b6115305760405162461bcd60e51b81526004016107d290611a92565b5050565b6007546001600160a01b03163314610d02576040516305fb7e5960e51b815260040160405180910390fd5b600880546001600160a01b0319169055600754604080516001600160a01b03928316815291831660208301527fbd852796332b57f573b324610c1fbc6b19597cdc44f5a0d0b5232223d3054f09910160405180910390a1600780546001600160a01b0319166001600160a01b0392909216919091179055565b6001600160a01b0382166116225760405162461bcd60e51b81526020600482015260116024820152701253959053125117d49150d25412515395607a1b60448201526064016107d2565b6000818152600460205260409020546001600160a01b0316156116785760405162461bcd60e51b815260206004820152600e60248201526d1053149150511657d3525395115160921b60448201526064016107d2565b6002805460019081019091556001600160a01b038316600081815260036020908152604080832080549095019094558482526004905282812080546001600160a01b0319168317905591518392907fddf252ad1be2c89b69c2b068fc378daa952ba7f163c4a11628f55a4df523b3ef908290a45050565b6001600160e01b031981168114610c1657600080fd5b60006020828403121561171757600080fd5b8135611722816116ef565b9392505050565b60006020828403121561173b57600080fd5b5035919050565b60005b8381101561175d578181015183820152602001611745565b50506000910152565b6000815180845261177e816020860160208601611742565b601f01601f19169290920160200192915050565b6020815260006117226020830184611766565b6001600160a01b0381168114610c1657600080fd5b600080604083850312156117cd57600080fd5b82356117d8816117a5565b946020939093013593505050565b6000806000606084860312156117fb57600080fd5b8335611806816117a5565b92506020840135611816816117a5565b929592945050506040919091013590565b60006020828403121561183957600080fd5b8135611722816117a5565b6020808252825182820181905260009190848201906040850190845b8181101561187c57835183529284019291840191600101611860565b50909695505050505050565b6000806040838503121561189b57600080fd5b82356118a6816117a5565b9150602083013580151581146118bb57600080fd5b809150509250929050565b634e487b7160e01b600052604160045260246000fd5b604051601f8201601f1916810167ffffffffffffffff81118282101715611905576119056118c6565b604052919050565b600067ffffffffffffffff821115611927576119276118c6565b50601f01601f191660200190565b6000806000806080858703121561194b57600080fd5b8435611956816117a5565b93506020850135611966816117a5565b925060408501359150606085013567ffffffffffffffff81111561198957600080fd5b8501601f8101871361199a57600080fd5b80356119ad6119a88261190d565b6118dc565b8181528860208385010111156119c257600080fd5b8160208401602083013760006020838301015280935050505092959194509250565b600080604083850312156119f757600080fd5b8235611a02816117a5565b915060208301356118bb816117a5565b634e487b7160e01b600052601160045260246000fd5b8082018082111561069e5761069e611a12565b600181811c90821680611a4f57607f821691505b602082108103611a6f57634e487b7160e01b600052602260045260246000fd5b50919050565b600060208284031215611a8757600080fd5b8151611722816116ef565b60208082526010908201526f155394d0519157d49150d2541251539560821b604082015260600190565b600060208284031215611ace57600080fd5b81516001600160801b038116811461172257600080fd5b808202811582820484141761069e5761069e611a12565b60006020808385031215611b0f57600080fd5b825167ffffffffffffffff80821115611b2757600080fd5b818501915085601f830112611b3b57600080fd5b815181811115611b4d57611b4d6118c6565b8060051b9150611b5e8483016118dc565b8181529183018401918481019088841115611b7857600080fd5b938501935b83851015611b9657845182529385019390850190611b7d565b98975050505050505050565b6001600160a01b0385811682528416602082015260408101839052608060608201819052600090611bd590830184611766565b9695505050505050565b600060208284031215611bf157600080fd5b815167ffffffffffffffff811115611c0857600080fd5b8201601f81018413611c1957600080fd5b8051611c276119a88261190d565b818152856020838501011115611c3c57600080fd5b611189826020830160208601611742565b600060208284031215611c5f57600080fd5b505191905056fea2646970667358221220c02f33a62736807b49c13d74f013de87ce500d0f91d76b58772b8a61bee239c164736f6c63430008130033",
    "linkReferences": {}
  },
  "methodIdentifiers": {
    "acceptOwnership()": "79ba5097",
    "addPermitterTemplates(address[])": "002951db",
    "addPoolManagerTemplates(address[])": "5e50c912",
    "addPoolTemplates(address[])": "1289232b",
    "addRouters(address[])": "4b01f85e",
    "createDittoPool((address,address,uint96,address,uint96,uint128,uint128,uint256[],uint256),uint256,(uint256,bytes),(uint256,bytes,bytes))": "d38cfca3",
    "getProtocolFee()": "a5a41031",
    "isWhitelistedRouter(address)": "a4b29620",
    "lpNft()": "f17156a7",
    "owner()": "8da5cb5b",
    "pendingOwner()": "e30c3978",
    "permitterTemplates()": "91c46355",
    "poolManagerTemplates()": "dfb371a2",
    "poolTemplates()": "c5d637fc",
    "protocolFeeRecipient()": "64df049e",
    "renounceOwnership()": "715018a6",
    "setMetadataGenerator(address)": "93777369",
    "setProtocolFee(uint96)": "6b6dccfe",
    "setProtocolFeeRecipient(address)": "e521cb92",
    "transferOwnership(address)": "f2fde38b"
  },
  "id": 22
}