{
  "abi": [
    {
      "inputs": [
        {
          "internalType": "contract ILpNft",
          "name": "lpNft_",
          "type": "address"
        }
      ],
      "stateMutability": "nonpayable",
      "type": "constructor"
    },
    {
      "inputs": [],
      "name": "DittoRouterDeadlinePassed",
      "type": "error"
    },
    {
      "inputs": [],
      "name": "DittoRouterNotAuthorizedPool",
      "type": "error"
    },
    {
      "inputs": [],
      "name": "DittoRouterOutputAmountTooLow",
      "type": "error"
    },
    {
      "inputs": [
        {
          "internalType": "contract ERC20",
          "name": "token",
          "type": "address"
        },
        {
          "internalType": "address",
          "name": "from",
          "type": "address"
        },
        {
          "internalType": "address",
          "name": "to",
          "type": "address"
        },
        {
          "internalType": "uint256",
          "name": "amount",
          "type": "uint256"
        }
      ],
      "name": "poolTransferErc20From",
      "outputs": [],
      "stateMutability": "nonpayable",
      "type": "function"
    },
    {
      "inputs": [
        {
          "internalType": "contract IERC721",
          "name": "nft",
          "type": "address"
        },
        {
          "internalType": "address",
          "name": "from",
          "type": "address"
        },
        {
          "internalType": "address",
          "name": "to",
          "type": "address"
        },
        {
          "internalType": "uint256",
          "name": "id",
          "type": "uint256"
        }
      ],
      "name": "poolTransferNftFrom",
      "outputs": [],
      "stateMutability": "nonpayable",
      "type": "function"
    },
    {
      "inputs": [
        {
          "components": [
            {
              "internalType": "contract IDittoPool",
              "name": "pool",
              "type": "address"
            },
            {
              "internalType": "uint256[]",
              "name": "nftIds",
              "type": "uint256[]"
            },
            {
              "internalType": "uint256[]",
              "name": "lpIds",
              "type": "uint256[]"
            },
            {
              "internalType": "bytes",
              "name": "permitterData",
              "type": "bytes"
            },
            {
              "internalType": "uint256",
              "name": "minOutput",
              "type": "uint256"
            }
          ],
          "internalType": "struct RobustNftInSwap[]",
          "name": "swapList",
          "type": "tuple[]"
        },
        {
          "internalType": "address",
          "name": "tokenRecipient",
          "type": "address"
        },
        {
          "internalType": "uint256",
          "name": "deadline",
          "type": "uint256"
        }
      ],
      "name": "robustSwapNftsForTokens",
      "outputs": [
        {
          "internalType": "uint256",
          "name": "outputAmount",
          "type": "uint256"
        }
      ],
      "stateMutability": "nonpayable",
      "type": "function"
    },
    {
      "inputs": [
        {
          "components": [
            {
              "internalType": "contract IDittoPool",
              "name": "pool",
              "type": "address"
            },
            {
              "internalType": "uint256[]",
              "name": "nftIds",
              "type": "uint256[]"
            },
            {
              "internalType": "uint256",
              "name": "maxCost",
              "type": "uint256"
            }
          ],
          "internalType": "struct RobustSwap[]",
          "name": "swapList",
          "type": "tuple[]"
        },
        {
          "internalType": "uint256",
          "name": "inputAmount",
          "type": "uint256"
        },
        {
          "internalType": "address",
          "name": "nftRecipient",
          "type": "address"
        },
        {
          "internalType": "uint256",
          "name": "deadline",
          "type": "uint256"
        }
      ],
      "name": "robustSwapTokensForNfts",
      "outputs": [
        {
          "internalType": "uint256",
          "name": "remainingValue",
          "type": "uint256"
        }
      ],
      "stateMutability": "nonpayable",
      "type": "function"
    },
    {
      "inputs": [
        {
          "components": [
            {
              "components": [
                {
                  "internalType": "contract IDittoPool",
                  "name": "pool",
                  "type": "address"
                },
                {
                  "internalType": "uint256[]",
                  "name": "nftIds",
                  "type": "uint256[]"
                },
                {
                  "internalType": "uint256",
                  "name": "maxCost",
                  "type": "uint256"
                }
              ],
              "internalType": "struct RobustSwap[]",
              "name": "tokenToNftTrades",
              "type": "tuple[]"
            },
            {
              "components": [
                {
                  "internalType": "contract IDittoPool",
                  "name": "pool",
                  "type": "address"
                },
                {
                  "internalType": "uint256[]",
                  "name": "nftIds",
                  "type": "uint256[]"
                },
                {
                  "internalType": "uint256[]",
                  "name": "lpIds",
                  "type": "uint256[]"
                },
                {
                  "internalType": "bytes",
                  "name": "permitterData",
                  "type": "bytes"
                },
                {
                  "internalType": "uint256",
                  "name": "minOutput",
                  "type": "uint256"
                }
              ],
              "internalType": "struct RobustNftInSwap[]",
              "name": "nftToTokenTrades",
              "type": "tuple[]"
            },
            {
              "internalType": "uint256",
              "name": "inputAmount",
              "type": "uint256"
            },
            {
              "internalType": "address",
              "name": "tokenRecipient",
              "type": "address"
            },
            {
              "internalType": "address",
              "name": "nftRecipient",
              "type": "address"
            },
            {
              "internalType": "uint256",
              "name": "deadline",
              "type": "uint256"
            }
          ],
          "internalType": "struct RobustComplexSwap",
          "name": "params",
          "type": "tuple"
        }
      ],
      "name": "robustSwapTokensForNftsAndNftsToToken",
      "outputs": [
        {
          "internalType": "uint256",
          "name": "remainingValue",
          "type": "uint256"
        },
        {
          "internalType": "uint256",
          "name": "outputAmount",
          "type": "uint256"
        }
      ],
      "stateMutability": "nonpayable",
      "type": "function"
    },
    {
      "inputs": [
        {
          "components": [
            {
              "components": [
                {
                  "internalType": "contract IDittoPool",
                  "name": "pool",
                  "type": "address"
                },
                {
                  "internalType": "uint256[]",
                  "name": "nftIds",
                  "type": "uint256[]"
                },
                {
                  "internalType": "uint256[]",
                  "name": "lpIds",
                  "type": "uint256[]"
                },
                {
                  "internalType": "bytes",
                  "name": "permitterData",
                  "type": "bytes"
                }
              ],
              "internalType": "struct NftInSwap[]",
              "name": "nftToTokenTrades",
              "type": "tuple[]"
            },
            {
              "components": [
                {
                  "internalType": "contract IDittoPool",
                  "name": "pool",
                  "type": "address"
                },
                {
                  "internalType": "uint256[]",
                  "name": "nftIds",
                  "type": "uint256[]"
                }
              ],
              "internalType": "struct Swap[]",
              "name": "tokenToNftTrades",
              "type": "tuple[]"
            }
          ],
          "internalType": "struct ComplexSwap",
          "name": "trade",
          "type": "tuple"
        },
        {
          "internalType": "uint256",
          "name": "inputAmount",
          "type": "uint256"
        },
        {
          "internalType": "uint256",
          "name": "minOutput",
          "type": "uint256"
        },
        {
          "internalType": "address",
          "name": "nftRecipient",
          "type": "address"
        },
        {
          "internalType": "uint256",
          "name": "deadline",
          "type": "uint256"
        }
      ],
      "name": "swapNftsForSpecificNftsThroughErc20",
      "outputs": [
        {
          "internalType": "uint256",
          "name": "outputAmount",
          "type": "uint256"
        }
      ],
      "stateMutability": "nonpayable",
      "type": "function"
    },
    {
      "inputs": [
        {
          "components": [
            {
              "internalType": "contract IDittoPool",
              "name": "pool",
              "type": "address"
            },
            {
              "internalType": "uint256[]",
              "name": "nftIds",
              "type": "uint256[]"
            },
            {
              "internalType": "uint256[]",
              "name": "lpIds",
              "type": "uint256[]"
            },
            {
              "internalType": "bytes",
              "name": "permitterData",
              "type": "bytes"
            }
          ],
          "internalType": "struct NftInSwap[]",
          "name": "swapList",
          "type": "tuple[]"
        },
        {
          "internalType": "uint256",
          "name": "minOutput",
          "type": "uint256"
        },
        {
          "internalType": "address",
          "name": "tokenRecipient",
          "type": "address"
        },
        {
          "internalType": "uint256",
          "name": "deadline",
          "type": "uint256"
        }
      ],
      "name": "swapNftsForTokens",
      "outputs": [
        {
          "internalType": "uint256",
          "name": "outputAmount",
          "type": "uint256"
        }
      ],
      "stateMutability": "nonpayable",
      "type": "function"
    },
    {
      "inputs": [
        {
          "components": [
            {
              "internalType": "contract IDittoPool",
              "name": "pool",
              "type": "address"
            },
            {
              "internalType": "uint256[]",
              "name": "nftIds",
              "type": "uint256[]"
            }
          ],
          "internalType": "struct Swap[]",
          "name": "swapList",
          "type": "tuple[]"
        },
        {
          "internalType": "uint256",
          "name": "inputAmount",
          "type": "uint256"
        },
        {
          "internalType": "address",
          "name": "nftRecipient",
          "type": "address"
        },
        {
          "internalType": "uint256",
          "name": "deadline",
          "type": "uint256"
        }
      ],
      "name": "swapTokensForNfts",
      "outputs": [
        {
          "internalType": "uint256",
          "name": "remainingValue",
          "type": "uint256"
        }
      ],
      "stateMutability": "nonpayable",
      "type": "function"
    }
  ],
  "bytecode": {
    "object": "0x60a060405234801561001057600080fd5b506040516114d33803806114d383398101604081905261002f91610045565b60016000556001600160a01b0316608052610075565b60006020828403121561005757600080fd5b81516001600160a01b038116811461006e57600080fd5b9392505050565b608051611443610090600039600061054e01526114436000f3fe608060405234801561001057600080fd5b50600436106100885760003560e01c80638f5d7b941161005b5780638f5d7b94146100ee578063c3258ea214610101578063d82b5a0d14610129578063ded34f711461013c57600080fd5b806305a39c511461008d57806342998ed3146100b35780635b2349f1146100c657806364b37c29146100db575b600080fd5b6100a061009b366004610b79565b61014f565b6040519081526020015b60405180910390f35b6100a06100c1366004610bdf565b610185565b6100d96100d4366004610c3b565b6101b9565b005b6100d96100e9366004610c3b565b610231565b6100a06100fc366004610c8c565b610254565b61011461010f366004610cfb565b6102b6565b604080519283526020830191909152016100aa565b6100a0610137366004610b79565b61032f565b6100a061014a366004610b79565b610352565b6000610159610372565b81610163816103d0565b61016f878787876103f4565b91505061017c6001600055565b95945050505050565b600061018f610372565b81610199816103d0565b6101a48686866104e2565b9150506101b16001600055565b949350505050565b6101c1610539565b6040516323b872dd60e01b81526001600160a01b0384811660048301528381166024830152604482018390528516906323b872dd90606401600060405180830381600087803b15801561021357600080fd5b505af1158015610227573d6000803e3d6000fd5b5050505050505050565b610239610539565b61024e6001600160a01b0385168484846105e0565b50505050565b600061025e610372565b81610268816103d0565b61027d6102758880610d3c565b600033610674565b91506102898683610d9b565b9150846102ac61029c60208a018a610d3c565b6102a68987610db4565b886103f4565b61016f9190610d9b565b6000806102c1610372565b8260a001356102cf816103d0565b6102f66102dc8580610d3c565b60408701356102f160a0890160808a01610dc7565b61077c565b925061031d6103086020860186610d3c565b6103186080880160608901610dc7565b6104e2565b91505061032a6001600055565b915091565b60008161033b816103d0565b6103478787878761077c565b979650505050505050565b600061035c610372565b81610366816103d0565b61016f87878787610674565b6002600054036103c95760405162461bcd60e51b815260206004820152601f60248201527f5265656e7472616e637947756172643a207265656e7472616e742063616c6c0060448201526064015b60405180910390fd5b6002600055565b804211156103f157604051635c95db1560e11b815260040160405180910390fd5b50565b6040805180820190915260008152606060208201528290849060005b828110156104d75787878281811061042a5761042a610de4565b905060200281019061043c9190610dfa565b61044590610f1e565b80516020820151604051633e9f730760e21b81529294506001600160a01b039091169163fa7dcc1c9161048091889033908b90600401610fce565b6020604051808303816000875af115801561049f573d6000803e3d6000fd5b505050506040513d601f19601f820116820180604052508101906104c39190611007565b6104cd9085610db4565b9350600101610410565b505050949350505050565b600082815b818110156105305761051c86868381811061050457610504610de4565b90506020028101906105169190611020565b85610945565b6105269084610d9b565b92506001016104e7565b50509392505050565b60405163d62fca6b60e01b81523360048201527f00000000000000000000000000000000000000000000000000000000000000006001600160a01b03169063d62fca6b90602401602060405180830381865afa15801561059d573d6000803e3d6000fd5b505050506040513d601f19601f820116820180604052508101906105c19190611036565b6105de57604051635e17302160e01b815260040160405180910390fd5b565b60006040516323b872dd60e01b81526001600160a01b03851660048201526001600160a01b038416602482015282604482015260008060648360008a5af191505061062a81610a54565b61066d5760405162461bcd60e51b81526020600482015260146024820152731514905394d1915497d19493d357d1905253115160621b60448201526064016103c0565b5050505050565b600083815b8181101561075157600087878381811061069557610695610de4565b90506020028101906106a79190611058565b6106b09061106e565b905080600001516001600160a01b03166386a6bb61826020015183604001516000338a87606001516040518763ffffffff1660e01b81526004016106f996959493929190611166565b6020604051808303816000875af1158015610718573d6000803e3d6000fd5b505050506040513d601f19601f8201168201806040525081019061073c9190611007565b6107469085610d9b565b935050600101610679565b50838210156107735760405163ce9c8fdd60e01b815260040160405180910390fd5b50949350505050565b6040805160608082018352600080835260208301919091529181018290528391908190869060005b82811015610938578989828181106107be576107be610de4565b90506020028101906107d091906111f8565b6107d99061120e565b8051602082015151604051630139a83160e71b815260048101919091529193506001600160a01b031690639cd418809060240161010060405180830381865afa15801561082a573d6000803e3d6000fd5b505050506040513d601f19601f8201168201806040525081019061084e9190611271565b509098509296508c92508b915083905081811061086d5761086d610de4565b905060200281019061087f91906111f8565b6040013585111580156108a3575060008460058111156108a1576108a16112ff565b145b156109305781516020830151604051633e9f730760e21b81526001600160a01b039092169163fa7dcc1c916108e091899033908d90600401610fce565b6020604051808303816000875af11580156108ff573d6000803e3d6000fd5b505050506040513d601f19601f820116820180604052508101906109239190611007565b61092d9087610db4565b95505b6001016107a4565b5050505050949350505050565b6000808061096d6109596020870187610dc7565b6109666020880188610d3c565b9050610a9b565b90925090506000826005811115610986576109866112ff565b148015610997575084608001358110155b15610a4c576109a96020860186610dc7565b6001600160a01b03166386a6bb616109c46020880188610d3c565b6109d160408a018a610d3c565b6000338b6109e260608f018f611315565b6040518a63ffffffff1660e01b8152600401610a069998979695949392919061138d565b6020604051808303816000875af1158015610a25573d6000803e3d6000fd5b505050506040513d601f19601f82011682018060405250810190610a499190611007565b92505b505092915050565b60003d82610a6657806000803e806000fd5b8060208114610a7e578015610a8f5760009250610a94565b816000803e60005115159250610a94565b600192505b5050919050565b604051638ec3d96360e01b81526004810182905260009081906001600160a01b03851690638ec3d9639060240161010060405180830381865afa158015610ae6573d6000803e3d6000fd5b505050506040513d601f19601f82011682018060405250810190610b0a9190611271565b50939890975095505050505050565b60008083601f840112610b2b57600080fd5b5081356001600160401b03811115610b4257600080fd5b6020830191508360208260051b8501011115610b5d57600080fd5b9250929050565b6001600160a01b03811681146103f157600080fd5b600080600080600060808688031215610b9157600080fd5b85356001600160401b03811115610ba757600080fd5b610bb388828901610b19565b909650945050602086013592506040860135610bce81610b64565b949793965091946060013592915050565b60008060008060608587031215610bf557600080fd5b84356001600160401b03811115610c0b57600080fd5b610c1787828801610b19565b9095509350506020850135610c2b81610b64565b9396929550929360400135925050565b60008060008060808587031215610c5157600080fd5b8435610c5c81610b64565b93506020850135610c6c81610b64565b92506040850135610c7c81610b64565b9396929550929360600135925050565b600080600080600060a08688031215610ca457600080fd5b85356001600160401b03811115610cba57600080fd5b860160408189031215610ccc57600080fd5b945060208601359350604086013592506060860135610cea81610b64565b949793965091946080013592915050565b600060208284031215610d0d57600080fd5b81356001600160401b03811115610d2357600080fd5b820160c08185031215610d3557600080fd5b9392505050565b6000808335601e19843603018112610d5357600080fd5b8301803591506001600160401b03821115610d6d57600080fd5b6020019150600581901b3603821315610b5d57600080fd5b634e487b7160e01b600052601160045260246000fd5b80820180821115610dae57610dae610d85565b92915050565b81810381811115610dae57610dae610d85565b600060208284031215610dd957600080fd5b8135610d3581610b64565b634e487b7160e01b600052603260045260246000fd5b60008235603e19833603018112610e1057600080fd5b9190910192915050565b634e487b7160e01b600052604160045260246000fd5b604051608081016001600160401b0381118282101715610e5257610e52610e1a565b60405290565b604051606081016001600160401b0381118282101715610e5257610e52610e1a565b604051601f8201601f191681016001600160401b0381118282101715610ea257610ea2610e1a565b604052919050565b600082601f830112610ebb57600080fd5b813560206001600160401b03821115610ed657610ed6610e1a565b8160051b610ee5828201610e7a565b9283528481018201928281019087851115610eff57600080fd5b83870192505b8483101561034757823582529183019190830190610f05565b600060408236031215610f3057600080fd5b604051604081016001600160401b038282108183111715610f5357610f53610e1a565b8160405284359150610f6482610b64565b90825260208401359080821115610f7a57600080fd5b50610f8736828601610eaa565b60208301525092915050565b600081518084526020808501945080840160005b83811015610fc357815187529582019590820190600101610fa7565b509495945050505050565b608081526000610fe16080830187610f93565b6020830195909552506001600160a01b0392831660408201529116606090910152919050565b60006020828403121561101957600080fd5b5051919050565b60008235609e19833603018112610e1057600080fd5b60006020828403121561104857600080fd5b81518015158114610d3557600080fd5b60008235607e19833603018112610e1057600080fd5b60006080823603121561108057600080fd5b611088610e30565b823561109381610b64565b81526020838101356001600160401b03808211156110b057600080fd5b6110bc36838801610eaa565b8385015260408601359150808211156110d457600080fd5b6110e036838801610eaa565b604085015260608601359150808211156110f957600080fd5b9085019036601f83011261110c57600080fd5b81358181111561111e5761111e610e1a565b611130601f8201601f19168501610e7a565b9150808252368482850101111561114657600080fd5b808484018584013760009082019093019290925250606082015292915050565b60c08152600061117960c0830189610f93565b60208382038185015261118c828a610f93565b604085018990526001600160a01b0388811660608701528716608086015284810360a0860152855180825290925060005b818110156111d85786810183015184820184015282016111bd565b506000838201830152601f01601f19169091010198975050505050505050565b60008235605e19833603018112610e1057600080fd5b60006060823603121561122057600080fd5b611228610e58565b823561123381610b64565b815260208301356001600160401b0381111561124e57600080fd5b61125a36828601610eaa565b602083015250604092830135928101929092525090565b60008060008060008086880361010081121561128c57600080fd5b87516006811061129b57600080fd5b809750506020880151955060408801519450606088015193506060607f19820112156112c657600080fd5b506112cf610e58565b6080880151815260a0880151602082015260c088015160408201528092505060e087015190509295509295509295565b634e487b7160e01b600052602160045260246000fd5b6000808335601e1984360301811261132c57600080fd5b8301803591506001600160401b0382111561134657600080fd5b602001915036819003821315610b5d57600080fd5b81835260006001600160fb1b0383111561137457600080fd5b8260051b80836020870137939093016020019392505050565b60c0815260006113a160c083018b8d61135b565b82810360208401526113b4818a8c61135b565b604084018990526001600160a01b0388811660608601528716608085015283810360a08501528481529050838560208301376000602085830101526020601f19601f8601168201019150509a995050505050505050505056fea264697066735822122096c6f88249b99e293f13759c9b908cc24e26091b21e470ef85f3783770e2ea4364736f6c63430008130033",
    "linkReferences": {}
  },
  "methodIdentifiers": {
    "poolTransferErc20From(address,address,address,uint256)": "64b37c29",
    "poolTransferNftFrom(address,address,address,uint256)": "5b2349f1",
    "robustSwapNftsForTokens((address,uint256[],uint256[],bytes,uint256)[],address,uint256)": "42998ed3",
    "robustSwapTokensForNfts((address,uint256[],uint256)[],uint256,address,uint256)": "d82b5a0d",
    "robustSwapTokensForNftsAndNftsToToken(((address,uint256[],uint256)[],(address,uint256[],uint256[],bytes,uint256)[],uint256,address,address,uint256))": "c3258ea2",
    "swapNftsForSpecificNftsThroughErc20(((address,uint256[],uint256[],bytes)[],(address,uint256[])[]),uint256,uint256,address,uint256)": "8f5d7b94",
    "swapNftsForTokens((address,uint256[],uint256[],bytes)[],uint256,address,uint256)": "ded34f71",
    "swapTokensForNfts((address,uint256[])[],uint256,address,uint256)": "05a39c51"
  },
  "id": 15
}